:100000000C9434000C9449000C9449000C94490061
:100010000C9449000C9449000C9449000C9449003C
:100020000C9449000C9449000C9449000C9449002C
:100030000C9449000C9449000C9449000C9449001C
:100040000C9449000C9449000C9449000C9449000C
:100050000C9449000C9449000C9449000C944900FC
:100060000C9449000C94490011241FBECFEFD8E036
:10007000DEBFCDBF12E0A0E0B1E0EAE0FBE002C0ED
:1000800005900D92AC30B107D9F70E9466000C9430
:1000900083050C940000E0ECF0E0908195FFFDCF2B
:1000A0008093C6000895ECE7F0E09081907F8F7018
:1000B000892B8083EAE7F0E08081806480838081FF
:1000C00086FDFDCF8091790090E00895CF93DF9376
:1000D000CDB7DEB7AA970FB6F894DEBF0FBECDBF7F
:1000E00088E090E09093C5008093C40088E18093FD
:1000F000C10086E08093C2008AB183708AB95098AB
:100100008BB18C6F8BB9589A80E680937C0087E81E
:1001100080937A001F921F9280E091E09F938F93CB
:100120001F9280E28F93CE0101969F938F930E943E
:100130008B0289810FB6F894DEBF0FBECDBF882336
:1001400051F08E010E5F1F4F0E944B00F80181910C
:100150008F018111F9CF1CA21BA2612C712C1AA254
:1001600019A2A12CB12CC12CD12C00E010E080E010
:1001700090E0412C512C22242394812C0EC08DA17F
:100180009EA1CBA2BCA26D2C712CF9A2EAA2A32C39
:10019000B92CC9A4DAA40FA118A529B1422D382D74
:1001A000522F547022FF02C040E030E04DA33EA326
:1001B000892B31F5511124C05F924F9221E231E039
:1001C0003F932F931F9290E29F93E1E0F0E0EC0FBA
:1001D000FD1FFF93EF930E948B0289810FB6F89465
:1001E000DEBF0FBECDBF882359F07E0132E0E30EA3
:1001F000F11C0E944B00F70181917F018111F9CF21
:1002000089B1222D982D382F387083FF02C020E04D
:1002100090E02FA398A7012B29F5311123C05F92FD
:100220004F922EE331E03F932F931F9290E29F93E2
:10023000E1E0F0E0EC0FFD1FFF93EF930E948B02D3
:1002400089810FB6F894DEBF0FBECDBF882351F071
:100250008E010E5F1F4F0E944B00F80181918F01AC
:100260008111F9CF89B1222D982D382F307184FF5B
:1002700002C020E090E029A79AA7CD2829F53111E6
:1002800023C05F924F922BE531E03F932F931F9253
:1002900090E29F93E1E0F0E0EC0FFD1FFF93EF93FE
:1002A0000E948B0289810FB6F894DEBF0FBECDBFCE
:1002B000882351F08E010E5F1F4F0E944B00F80102
:1002C00081918F018111F9CF89B1322C982C982F0F
:1002D000907285FF02C0312C912CAB2829F5911129
:1002E00023C05F924F9228E731E03F932F931F92F4
:1002F00090E29F93E1E0F0E0EC0FFD1FFF93EF939E
:100300000E948B0289810FB6F894DEBF0FBECDBF6D
:10031000882351F08E010E5F1F4F0E944B00F801A1
:1003200081918F018111F9CF89B1F22CE82C982F9E
:10033000907486FF02C0F12CE12C29A13AA1232B55
:1003400029F5911123C05F924F9285E991E09F9327
:100350008F931F92F0E2FF9321E030E02C0F3D1FBE
:100360003F932F930E948B0289810FB6F894DEBFD2
:100370000FBECDBF882351F08E010E5F1F4F0E942C
:100380004B00F80181918F018111F9CF29B1822FA2
:10039000022E000C990B80959095D92EDD1CDD2442
:1003A000DD1C672829F522231CF15F924F9222EB76
:1003B00031E03F932F931F9290E29F93E1E0F0E0B2
:1003C000EC0FFD1FFF93EF930E948B0289810FB604
:1003D000F894DEBF0FBECDBF882351F08E010E5FB3
:1003E0001F4F0E944B00F80181918F018111F9CFBD
:1003F00083B1C22CB82C982F917080FF02C0C12C01
:10040000B12C2BA13CA1232B09F04EC091114CC063
:100410005F924F928FEC91E09F938F931F92F0E247
:10042000FF9321E030E02C0F3D1F3F932F930E945C
:100430008B0289810FB6F894DEBF0FBECDBF882333
:1004400051F08E010E5F1F4F0E944B00F801819109
:100450008F018111F9CF81E0452809F080E0482E15
:10046000512C1F928F9320E031E03F932F931F92E6
:1004700090E29F93E1E0F0E0EC0FFD1FFF93EF931C
:100480000E948B0289810FB6F894DEBF0FBECDBFEC
:10049000882351F08E010E5F1F4F0E944B00F80120
:1004A00081918F018111F9CFF1E04F16510409F0CC
:1004B00066CE81E00E945300182F092F80E00E9431
:1004C00053000F931F939F938F931F9281E08F93FD
:1004D0002CEE31E03F932F931F9290E29F93E1E047
:1004E000F0E0EC0FFD1FFF93EF930E948B028981D8
:1004F0000FB6F894DEBF0FBECDBF882309F43FCE00
:100500008E010E5F1F4F0E944B00F80181918F01F9
:100510008111F9CF34CEAEE0B0E0E1E9F2E00C9425
:100520005A050D891E898F89988D26E02C831A83A0
:10053000098397FF02C080E090E801979E838D8336
:10054000AE01455E5F4F698D7A8DCE0101960E94A6
:10055000BB024D815E8157FD0AC02F81388542174D
:1005600053070CF49A01F801E20FF31F10822E9644
:10057000E4E00C947605ABE0B0E0E1ECF2E00C9442
:100580004C056C017B018A01FC0117821682838174
:1005900081FFCCC1CE0101963C01F6019381F701A8
:1005A00093FD859193FF81917F01882309F4BAC15E
:1005B000853239F493FD859193FF81917F018532D6
:1005C00029F4B60190E00E94B204E7CF912C212CCF
:1005D000312CFFE1F315D8F08B3279F038F480320A
:1005E00079F08332A1F4232D20611DC08D3261F09A
:1005F000803369F4232D216016C0832D8260382E4C
:10060000E32DE4603E2E2AC0F32DF8601DC037FCB8
:100610002DC020ED280F2A3040F08E32B9F436FC80
:1006200081C1232D2064322E19C036FE06C08AE017
:10063000989E200D1124922E11C0EAE02E9E200DCE
:100640001124222EF32DF0623F2E08C08C3621F4A7
:10065000832D8068382E02C0883641F4F70193FD5F
:10066000859193FF81917F018111B3CF982F9F7D59
:100670009554933028F40C5F1F4F9FE399830DC06E
:10068000833631F0833771F0833509F059C021C0CA
:10069000F801808189830E5F1F4F88248394912CF9
:1006A000530113C02801F2E04F0E511CF801A08045
:1006B000B18036FE03C0692D70E002C06FEF7FEF9E
:1006C000C5010E94A7044C018201F32DFF773F2E44
:1006D00016C0280122E0420E511CF801A080B18012
:1006E00036FE03C0692D70E002C06FEF7FEFC501D9
:1006F0000E949C044C01F32DF0683F2E820133FCD4
:100700001BC0822D90E088169906B0F4B60180E2F5
:1007100090E00E94B2042A94F4CFF50137FC859151
:1007200037FE81915F01B60190E00E94B204211072
:100730002A9421E0821A91088114910471F7E8C08B
:10074000843611F0893641F5F80137FE07C0608123
:100750007181828193810C5F1F4F08C0608171811C
:10076000072E000C880B990B0E5F1F4FF32DFF76A1
:100770003F2E97FF09C090958095709561957F4FAA
:100780008F4F9F4FF0683F2E2AE030E0A3010E9478
:10079000EE04882E861845C0853731F4232D2F7E30
:1007A000B22E2AE030E025C0932D997FB92E8F36E6
:1007B000C1F018F4883579F0B5C0803719F0883762
:1007C00021F0B0C0E92FE061BE2EB4FE0DC0FB2DBC
:1007D000F460BF2E09C034FE0AC0292F2660B22E55
:1007E00006C028E030E005C020E130E002C020E192
:1007F00032E0F801B7FE07C0608171818281938188
:100800000C5F1F4F06C06081718180E090E00E5F39
:100810001F4FA3010E94EE04882E8618FB2DFF7740
:100820003F2E36FE0DC0232D2E7FA22E891458F4A4
:1008300034FE0BC032FC09C0832D8E7EA82E05C06D
:10084000B82CA32C03C0B82C01C0B92CA4FE0FC037
:10085000FE01E80DF11D8081803321F49A2D997EEF
:10086000A92E09C0A2FE06C0B394B39404C08A2D79
:10087000867809F0B394A3FC11C0A0FE06C0B214A0
:1008800088F4280C922C9B180EC0B21460F4B601A8
:1008900080E290E00E94B204B394F7CFB21418F44F
:1008A0002B1802C0982C212CA4FE10C0B60180E3A6
:1008B00090E00E94B204A2FE17C0A1FC03C088E72A
:1008C00090E002C088E590E0B6010CC08A2D8678E1
:1008D00059F0A1FE02C08BE201C080E2A7FC8DE2CC
:1008E000B60190E00E94B204891438F4B60180E3A6
:1008F00090E00E94B2049A94F7CF8A94F301E80D35
:10090000F11D8081B60190E00E94B2048110F5CF04
:10091000222009F442CEB60180E290E00E94B204A7
:100920002A94F6CFF6018681978102C08FEF9FEF60
:100930002B96E2E10C946805FC0105906150704033
:100940000110D8F7809590958E0F9F1F0895FC0198
:100950006150704001900110D8F7809590958E0FEE
:100960009F1F08950F931F93CF93DF93FB01238164
:1009700021FD03C08FEF9FEF2CC022FF16C04681E0
:100980005781248135814217530744F4A081B181F6
:100990009D012F5F3F4F318320838C9326813781C8
:1009A0002F5F3F4F3783268314C08B01EC01FB017F
:1009B0000084F185E02D0995892BE1F6D801169682
:1009C0008D919C911797019617969C938E931697ED
:1009D000CE01DF91CF911F910F910895FA01AA27BF
:1009E000283051F1203181F1E8946F936E7F6E5F72
:1009F0007F4F8F4F9F4FAF4FB1E03ED0B4E03CD020
:100A0000670F781F891F9A1FA11D680F791F8A1F02
:100A1000911DA11D6A0F711D811D911DA11D20D069
:100A200009F468943F912AE0269F11243019305D23
:100A30003193DEF6CF010895462F4770405D419314
:100A4000B3E00FD0C9F7F6CF462F4F70405D4A3361
:100A500018F0495D31FD4052419302D0A9F7EACF29
:100A6000B4E0A6959795879577956795BA95C9F758
:100A700000976105710508959B01AC010A2E06944B
:100A80005795479537952795BA95C9F7620F731F04
:100A9000841F951FA01D08952F923F924F925F9241
:100AA0006F927F928F929F92AF92BF92CF92DF927E
:100AB000EF92FF920F931F93CF93DF93CDB7DEB7E3
:100AC000CA1BDB0B0FB6F894DEBF0FBECDBF099477
:100AD0002A88398848885F846E847D848C849B84CE
:100AE000AA84B984C884DF80EE80FD800C811B81DC
:100AF000AA81B981CE0FD11D0FB6F894DEBF0FBE0B
:0A0B0000CDBFED010895F894FFCF7A
:100B0A00436865636B706F696E743A20522575206D
:100B1A002D20427574746F6E2054657374210D0A0A
:100B2A0000436865636B706F696E743A205225756D
:100B3A00202D20427574746F6E20410D0A0043689F
:100B4A0065636B706F696E743A20522575202D208B
:100B5A00427574746F6E20420D0A00436865636BB8
:100B6A00706F696E743A20522575202D2042757473
:100B7A00746F6E20430D0A00436865636B706F697A
:100B8A006E743A20522575202D20427574746F6E4A
:100B9A0020440D0A00436865636B706F696E743A8E
:100BAA0020522575202D20427574746F6E20450DD4
:100BBA000A00436865636B706F696E743A20522548
:100BCA0075202D20427574746F6E20460D0A0043FD
:100BDA006865636B706F696E743A20522575202DB3
:100BEA0020427574746F6E204B0D0A00436865636A
:100BFA006B706F696E743A20522575202D20583A11
:0C0C0A0025642C593A2564200D0A0000D6
:00000001FF
